{
	"_format": "hh-sol-artifact-1",
	"contractName": "MyToken",
	"sourceName": "contracts/MyToken.sol",
	"abi": [
		{
			"inputs": [
				{
					"internalType": "uint256",
					"name": "_totalSupply",
					"type": "uint256"
				},
				{
					"internalType": "string",
					"name": "tokenName",
					"type": "string"
				},
				{
					"internalType": "string",
					"name": "tokenSym",
					"type": "string"
				},
				{
					"internalType": "string",
					"name": "_tokenURIs",
					"type": "string"
				}
			],
			"stateMutability": "nonpayable",
			"type": "constructor"
		},
		{
			"anonymous": false,
			"inputs": [
				{
					"indexed": true,
					"internalType": "address",
					"name": "owner",
					"type": "address"
				},
				{
					"indexed": true,
					"internalType": "address",
					"name": "approved",
					"type": "address"
				},
				{
					"indexed": true,
					"internalType": "uint256",
					"name": "tokenId",
					"type": "uint256"
				}
			],
			"name": "Approval",
			"type": "event"
		},
		{
			"anonymous": false,
			"inputs": [
				{
					"indexed": true,
					"internalType": "address",
					"name": "owner",
					"type": "address"
				},
				{
					"indexed": true,
					"internalType": "address",
					"name": "operator",
					"type": "address"
				},
				{
					"indexed": false,
					"internalType": "bool",
					"name": "approved",
					"type": "bool"
				}
			],
			"name": "ApprovalForAll",
			"type": "event"
		},
		{
			"anonymous": false,
			"inputs": [
				{
					"indexed": true,
					"internalType": "address",
					"name": "from",
					"type": "address"
				},
				{
					"indexed": true,
					"internalType": "address",
					"name": "to",
					"type": "address"
				},
				{
					"indexed": true,
					"internalType": "uint256",
					"name": "tokenId",
					"type": "uint256"
				}
			],
			"name": "Transfer",
			"type": "event"
		},
		{
			"inputs": [
				{
					"internalType": "address",
					"name": "to",
					"type": "address"
				},
				{
					"internalType": "uint256",
					"name": "tokenId",
					"type": "uint256"
				}
			],
			"name": "approve",
			"outputs": [],
			"stateMutability": "nonpayable",
			"type": "function"
		},
		{
			"inputs": [
				{
					"internalType": "address",
					"name": "owner",
					"type": "address"
				}
			],
			"name": "balanceOf",
			"outputs": [
				{
					"internalType": "uint256",
					"name": "",
					"type": "uint256"
				}
			],
			"stateMutability": "view",
			"type": "function"
		},
		{
			"inputs": [
				{
					"internalType": "uint256",
					"name": "tokenId",
					"type": "uint256"
				}
			],
			"name": "getApproved",
			"outputs": [
				{
					"internalType": "address",
					"name": "",
					"type": "address"
				}
			],
			"stateMutability": "view",
			"type": "function"
		},
		{
			"inputs": [
				{
					"internalType": "address",
					"name": "owner",
					"type": "address"
				},
				{
					"internalType": "address",
					"name": "operator",
					"type": "address"
				}
			],
			"name": "isApprovedForAll",
			"outputs": [
				{
					"internalType": "bool",
					"name": "",
					"type": "bool"
				}
			],
			"stateMutability": "view",
			"type": "function"
		},
		{
			"inputs": [],
			"name": "mintNFT",
			"outputs": [],
			"stateMutability": "nonpayable",
			"type": "function"
		},
		{
			"inputs": [],
			"name": "name",
			"outputs": [
				{
					"internalType": "string",
					"name": "",
					"type": "string"
				}
			],
			"stateMutability": "view",
			"type": "function"
		},
		{
			"inputs": [
				{
					"internalType": "uint256",
					"name": "tokenId",
					"type": "uint256"
				}
			],
			"name": "ownerOf",
			"outputs": [
				{
					"internalType": "address",
					"name": "",
					"type": "address"
				}
			],
			"stateMutability": "view",
			"type": "function"
		},
		{
			"inputs": [
				{
					"internalType": "address",
					"name": "from",
					"type": "address"
				},
				{
					"internalType": "address",
					"name": "to",
					"type": "address"
				},
				{
					"internalType": "uint256",
					"name": "tokenId",
					"type": "uint256"
				}
			],
			"name": "safeTransferFrom",
			"outputs": [],
			"stateMutability": "nonpayable",
			"type": "function"
		},
		{
			"inputs": [
				{
					"internalType": "address",
					"name": "from",
					"type": "address"
				},
				{
					"internalType": "address",
					"name": "to",
					"type": "address"
				},
				{
					"internalType": "uint256",
					"name": "tokenId",
					"type": "uint256"
				},
				{
					"internalType": "bytes",
					"name": "data",
					"type": "bytes"
				}
			],
			"name": "safeTransferFrom",
			"outputs": [],
			"stateMutability": "nonpayable",
			"type": "function"
		},
		{
			"inputs": [
				{
					"internalType": "address",
					"name": "operator",
					"type": "address"
				},
				{
					"internalType": "bool",
					"name": "approved",
					"type": "bool"
				}
			],
			"name": "setApprovalForAll",
			"outputs": [],
			"stateMutability": "nonpayable",
			"type": "function"
		},
		{
			"inputs": [
				{
					"internalType": "bytes4",
					"name": "interfaceId",
					"type": "bytes4"
				}
			],
			"name": "supportsInterface",
			"outputs": [
				{
					"internalType": "bool",
					"name": "",
					"type": "bool"
				}
			],
			"stateMutability": "view",
			"type": "function"
		},
		{
			"inputs": [],
			"name": "symbol",
			"outputs": [
				{
					"internalType": "string",
					"name": "",
					"type": "string"
				}
			],
			"stateMutability": "view",
			"type": "function"
		},
		{
			"inputs": [],
			"name": "tokenId",
			"outputs": [
				{
					"internalType": "uint256",
					"name": "",
					"type": "uint256"
				}
			],
			"stateMutability": "view",
			"type": "function"
		},
		{
			"inputs": [
				{
					"internalType": "uint256",
					"name": "_tokenId",
					"type": "uint256"
				}
			],
			"name": "tokenURI",
			"outputs": [
				{
					"internalType": "string",
					"name": "",
					"type": "string"
				}
			],
			"stateMutability": "view",
			"type": "function"
		},
		{
			"inputs": [],
			"name": "tokenURIs",
			"outputs": [
				{
					"internalType": "string",
					"name": "",
					"type": "string"
				}
			],
			"stateMutability": "view",
			"type": "function"
		},
		{
			"inputs": [],
			"name": "totalSupply",
			"outputs": [
				{
					"internalType": "uint256",
					"name": "",
					"type": "uint256"
				}
			],
			"stateMutability": "view",
			"type": "function"
		},
		{
			"inputs": [
				{
					"internalType": "address",
					"name": "from",
					"type": "address"
				},
				{
					"internalType": "address",
					"name": "to",
					"type": "address"
				},
				{
					"internalType": "uint256",
					"name": "tokenId",
					"type": "uint256"
				}
			],
			"name": "transferFrom",
			"outputs": [],
			"stateMutability": "nonpayable",
			"type": "function"
		}
	],
	"bytecode": "0x608060405260006007553480156200001657600080fd5b5060405162002a1d38038062002a1d83398181016040528101906200003c919062000255565b828281600090816200004f919062000565565b50806001908162000061919062000565565b5050508360068190555080600890816200007c919062000565565b50505050506200064c565b6000604051905090565b600080fd5b600080fd5b6000819050919050565b620000b0816200009b565b8114620000bc57600080fd5b50565b600081519050620000d081620000a5565b92915050565b600080fd5b600080fd5b6000601f19601f8301169050919050565b7f4e487b7100000000000000000000000000000000000000000000000000000000600052604160045260246000fd5b6200012b82620000e0565b810181811067ffffffffffffffff821117156200014d576200014c620000f1565b5b80604052505050565b60006200016262000087565b905062000170828262000120565b919050565b600067ffffffffffffffff821115620001935762000192620000f1565b5b6200019e82620000e0565b9050602081019050919050565b60005b83811015620001cb578082015181840152602081019050620001ae565b60008484015250505050565b6000620001ee620001e88462000175565b62000156565b9050828152602081018484840111156200020d576200020c620000db565b5b6200021a848285620001ab565b509392505050565b600082601f8301126200023a5762000239620000d6565b5b81516200024c848260208601620001d7565b91505092915050565b6000806000806080858703121562000272576200027162000091565b5b60006200028287828801620000bf565b945050602085015167ffffffffffffffff811115620002a657620002a562000096565b5b620002b48782880162000222565b935050604085015167ffffffffffffffff811115620002d857620002d762000096565b5b620002e68782880162000222565b925050606085015167ffffffffffffffff8111156200030a576200030962000096565b5b620003188782880162000222565b91505092959194509250565b600081519050919050565b7f4e487b7100000000000000000000000000000000000000000000000000000000600052602260045260246000fd5b600060028204905060018216806200037757607f821691505b6020821081036200038d576200038c6200032f565b5b50919050565b60008190508160005260206000209050919050565b60006020601f8301049050919050565b600082821b905092915050565b600060088302620003f77fffffffffffffffffffffffffffffffffffffffffffffffffffffffffffffffff82620003b8565b620004038683620003b8565b95508019841693508086168417925050509392505050565b6000819050919050565b600062000446620004406200043a846200009b565b6200041b565b6200009b565b9050919050565b6000819050919050565b620004628362000425565b6200047a62000471826200044d565b848454620003c5565b825550505050565b600090565b6200049162000482565b6200049e81848462000457565b505050565b5b81811015620004c657620004ba60008262000487565b600181019050620004a4565b5050565b601f8211156200051557620004df8162000393565b620004ea84620003a8565b81016020851015620004fa578190505b620005126200050985620003a8565b830182620004a3565b50505b505050565b600082821c905092915050565b60006200053a600019846008026200051a565b1980831691505092915050565b600062000555838362000527565b9150826002028217905092915050565b620005708262000324565b67ffffffffffffffff8111156200058c576200058b620000f1565b5b6200059882546200035e565b620005a5828285620004ca565b600060209050601f831160018114620005dd5760008415620005c8578287015190505b620005d4858262000547565b86555062000644565b601f198416620005ed8662000393565b60005b828110156200061757848901518255600182019150602085019450602081019050620005f0565b8683101562000637578489015162000633601f89168262000527565b8355505b6001600288020188555050505b505050505050565b6123c1806200065c6000396000f3fe608060405234801561001057600080fd5b506004361061010b5760003560e01c806342842e0e116100a2578063a22cb46511610071578063a22cb465146102a6578063b88d4fde146102c2578063c87b56dd146102de578063e7b26fde1461030e578063e985e9c51461032c5761010b565b806342842e0e1461020c5780636352211e1461022857806370a082311461025857806395d89b41146102885761010b565b806314f710fe116100de57806314f710fe146101aa57806317d70f7c146101b457806318160ddd146101d257806323b872dd146101f05761010b565b806301ffc9a71461011057806306fdde0314610140578063081812fc1461015e578063095ea7b31461018e575b600080fd5b61012a600480360381019061012591906116e9565b61035c565b6040516101379190611731565b60405180910390f35b61014861043e565b60405161015591906117dc565b60405180910390f35b61017860048036038101906101739190611834565b6104d0565b60405161018591906118a2565b60405180910390f35b6101a860048036038101906101a391906118e9565b610516565b005b6101b261062d565b005b6101bc610655565b6040516101c99190611938565b60405180910390f35b6101da61065b565b6040516101e79190611938565b60405180910390f35b61020a60048036038101906102059190611953565b610661565b005b61022660048036038101906102219190611953565b6106c1565b005b610242600480360381019061023d9190611834565b6106e1565b60405161024f91906118a2565b60405180910390f35b610272600480360381019061026d91906119a6565b610767565b60405161027f9190611938565b60405180910390f35b61029061081e565b60405161029d91906117dc565b60405180910390f35b6102c060048036038101906102bb91906119ff565b6108b0565b005b6102dc60048036038101906102d79190611b74565b6108c6565b005b6102f860048036038101906102f39190611834565b610928565b60405161030591906117dc565b60405180910390f35b6103166109c5565b60405161032391906117dc565b60405180910390f35b61034660048036038101906103419190611bf7565b610a53565b6040516103539190611731565b60405180910390f35b60007f80ac58cd000000000000000000000000000000000000000000000000000000007bffffffffffffffffffffffffffffffffffffffffffffffffffffffff1916827bffffffffffffffffffffffffffffffffffffffffffffffffffffffff1916148061042757507f5b5e139f000000000000000000000000000000000000000000000000000000007bffffffffffffffffffffffffffffffffffffffffffffffffffffffff1916827bffffffffffffffffffffffffffffffffffffffffffffffffffffffff1916145b80610437575061043682610ae7565b5b9050919050565b60606000805461044d90611c66565b80601f016020809104026020016040519081016040528092919081815260200182805461047990611c66565b80156104c65780601f1061049b576101008083540402835291602001916104c6565b820191906000526020600020905b8154815290600101906020018083116104a957829003601f168201915b5050505050905090565b60006104db82610b51565b6004600083815260200190815260200160002060009054906101000a900473ffffffffffffffffffffffffffffffffffffffff169050919050565b6000610521826106e1565b90508073ffffffffffffffffffffffffffffffffffffffff168373ffffffffffffffffffffffffffffffffffffffff1603610591576040517f08c379a000000000000000000000000000000000000000000000000000000000815260040161058890611d09565b60405180910390fd5b8073ffffffffffffffffffffffffffffffffffffffff166105b0610b9c565b73ffffffffffffffffffffffffffffffffffffffff1614806105df57506105de816105d9610b9c565b610a53565b5b61061e576040517f08c379a000000000000000000000000000000000000000000000000000000000815260040161061590611d9b565b60405180910390fd5b6106288383610ba4565b505050565b61063933600754610c5d565b60016007600082825461064c9190611dea565b92505081905550565b60075481565b60065481565b61067261066c610b9c565b82610c7b565b6106b1576040517f08c379a00000000000000000000000000000000000000000000000000000000081526004016106a890611e90565b60405180910390fd5b6106bc838383610d10565b505050565b6106dc838383604051806020016040528060008152506108c6565b505050565b6000806106ed83611009565b9050600073ffffffffffffffffffffffffffffffffffffffff168173ffffffffffffffffffffffffffffffffffffffff160361075e576040517f08c379a000000000000000000000000000000000000000000000000000000000815260040161075590611efc565b60405180910390fd5b80915050919050565b60008073ffffffffffffffffffffffffffffffffffffffff168273ffffffffffffffffffffffffffffffffffffffff16036107d7576040517f08c379a00000000000000000000000000000000000000000000000000000000081526004016107ce90611f8e565b60405180910390fd5b600360008373ffffffffffffffffffffffffffffffffffffffff1673ffffffffffffffffffffffffffffffffffffffff168152602001908152602001600020549050919050565b60606001805461082d90611c66565b80601f016020809104026020016040519081016040528092919081815260200182805461085990611c66565b80156108a65780601f1061087b576101008083540402835291602001916108a6565b820191906000526020600020905b81548152906001019060200180831161088957829003601f168201915b5050505050905090565b6108c26108bb610b9c565b8383611046565b5050565b6108d76108d1610b9c565b83610c7b565b610916576040517f08c379a000000000000000000000000000000000000000000000000000000000815260040161090d90611e90565b60405180910390fd5b610922848484846111b2565b50505050565b606061093382610b51565b6008805461094090611c66565b80601f016020809104026020016040519081016040528092919081815260200182805461096c90611c66565b80156109b95780601f1061098e576101008083540402835291602001916109b9565b820191906000526020600020905b81548152906001019060200180831161099c57829003601f168201915b50505050509050919050565b600880546109d290611c66565b80601f01602080910402602001604051908101604052809291908181526020018280546109fe90611c66565b8015610a4b5780601f10610a2057610100808354040283529160200191610a4b565b820191906000526020600020905b815481529060010190602001808311610a2e57829003601f168201915b505050505081565b6000600560008473ffffffffffffffffffffffffffffffffffffffff1673ffffffffffffffffffffffffffffffffffffffff16815260200190815260200160002060008373ffffffffffffffffffffffffffffffffffffffff1673ffffffffffffffffffffffffffffffffffffffff16815260200190815260200160002060009054906101000a900460ff16905092915050565b60007f01ffc9a7000000000000000000000000000000000000000000000000000000007bffffffffffffffffffffffffffffffffffffffffffffffffffffffff1916827bffffffffffffffffffffffffffffffffffffffffffffffffffffffff1916149050919050565b610b5a8161120e565b610b99576040517f08c379a0000000000000000000000000000000000000000000000000000000008152600401610b9090611efc565b60405180910390fd5b50565b600033905090565b816004600083815260200190815260200160002060006101000a81548173ffffffffffffffffffffffffffffffffffffffff021916908373ffffffffffffffffffffffffffffffffffffffff160217905550808273ffffffffffffffffffffffffffffffffffffffff16610c17836106e1565b73ffffffffffffffffffffffffffffffffffffffff167f8c5be1e5ebec7d5bd14f71427d1e84f3dd0314c0f7b2291e5b200ac8c7c3b92560405160405180910390a45050565b610c7782826040518060200160405280600081525061124f565b5050565b600080610c87836106e1565b90508073ffffffffffffffffffffffffffffffffffffffff168473ffffffffffffffffffffffffffffffffffffffff161480610cc95750610cc88185610a53565b5b80610d0757508373ffffffffffffffffffffffffffffffffffffffff16610cef846104d0565b73ffffffffffffffffffffffffffffffffffffffff16145b91505092915050565b8273ffffffffffffffffffffffffffffffffffffffff16610d30826106e1565b73ffffffffffffffffffffffffffffffffffffffff1614610d86576040517f08c379a0000000000000000000000000000000000000000000000000000000008152600401610d7d90612020565b60405180910390fd5b600073ffffffffffffffffffffffffffffffffffffffff168273ffffffffffffffffffffffffffffffffffffffff1603610df5576040517f08c379a0000000000000000000000000000000000000000000000000000000008152600401610dec906120b2565b60405180910390fd5b610e0283838360016112aa565b8273ffffffffffffffffffffffffffffffffffffffff16610e22826106e1565b73ffffffffffffffffffffffffffffffffffffffff1614610e78576040517f08c379a0000000000000000000000000000000000000000000000000000000008152600401610e6f90612020565b60405180910390fd5b6004600082815260200190815260200160002060006101000a81549073ffffffffffffffffffffffffffffffffffffffff02191690556001600360008573ffffffffffffffffffffffffffffffffffffffff1673ffffffffffffffffffffffffffffffffffffffff168152602001908152602001600020600082825403925050819055506001600360008473ffffffffffffffffffffffffffffffffffffffff1673ffffffffffffffffffffffffffffffffffffffff16815260200190815260200160002060008282540192505081905550816002600083815260200190815260200160002060006101000a81548173ffffffffffffffffffffffffffffffffffffffff021916908373ffffffffffffffffffffffffffffffffffffffff160217905550808273ffffffffffffffffffffffffffffffffffffffff168473ffffffffffffffffffffffffffffffffffffffff167fddf252ad1be2c89b69c2b068fc378daa952ba7f163c4a11628f55a4df523b3ef60405160405180910390a461100483838360016112b0565b505050565b60006002600083815260200190815260200160002060009054906101000a900473ffffffffffffffffffffffffffffffffffffffff169050919050565b8173ffffffffffffffffffffffffffffffffffffffff168373ffffffffffffffffffffffffffffffffffffffff16036110b4576040517f08c379a00000000000000000000000000000000000000000000000000000000081526004016110ab9061211e565b60405180910390fd5b80600560008573ffffffffffffffffffffffffffffffffffffffff1673ffffffffffffffffffffffffffffffffffffffff16815260200190815260200160002060008473ffffffffffffffffffffffffffffffffffffffff1673ffffffffffffffffffffffffffffffffffffffff16815260200190815260200160002060006101000a81548160ff0219169083151502179055508173ffffffffffffffffffffffffffffffffffffffff168373ffffffffffffffffffffffffffffffffffffffff167f17307eab39ab6107e8899845ad3d59bd9653f200f220920489ca2b5937696c31836040516111a59190611731565b60405180910390a3505050565b6111bd848484610d10565b6111c9848484846112b6565b611208576040517f08c379a00000000000000000000000000000000000000000000000000000000081526004016111ff906121b0565b60405180910390fd5b50505050565b60008073ffffffffffffffffffffffffffffffffffffffff1661123083611009565b73ffffffffffffffffffffffffffffffffffffffff1614159050919050565b611259838361143d565b61126660008484846112b6565b6112a5576040517f08c379a000000000000000000000000000000000000000000000000000000000815260040161129c906121b0565b60405180910390fd5b505050565b50505050565b50505050565b60006112d78473ffffffffffffffffffffffffffffffffffffffff1661165a565b15611430578373ffffffffffffffffffffffffffffffffffffffff1663150b7a02611300610b9c565b8786866040518563ffffffff1660e01b81526004016113229493929190612225565b6020604051808303816000875af192505050801561135e57506040513d601f19601f8201168201806040525081019061135b9190612286565b60015b6113e0573d806000811461138e576040519150601f19603f3d011682016040523d82523d6000602084013e611393565b606091505b5060008151036113d8576040517f08c379a00000000000000000000000000000000000000000000000000000000081526004016113cf906121b0565b60405180910390fd5b805181602001fd5b63150b7a0260e01b7bffffffffffffffffffffffffffffffffffffffffffffffffffffffff1916817bffffffffffffffffffffffffffffffffffffffffffffffffffffffff191614915050611435565b600190505b949350505050565b600073ffffffffffffffffffffffffffffffffffffffff168273ffffffffffffffffffffffffffffffffffffffff16036114ac576040517f08c379a00000000000000000000000000000000000000000000000000000000081526004016114a3906122ff565b60405180910390fd5b6114b58161120e565b156114f5576040517f08c379a00000000000000000000000000000000000000000000000000000000081526004016114ec9061236b565b60405180910390fd5b6115036000838360016112aa565b61150c8161120e565b1561154c576040517f08c379a00000000000000000000000000000000000000000000000000000000081526004016115439061236b565b60405180910390fd5b6001600360008473ffffffffffffffffffffffffffffffffffffffff1673ffffffffffffffffffffffffffffffffffffffff16815260200190815260200160002060008282540192505081905550816002600083815260200190815260200160002060006101000a81548173ffffffffffffffffffffffffffffffffffffffff021916908373ffffffffffffffffffffffffffffffffffffffff160217905550808273ffffffffffffffffffffffffffffffffffffffff16600073ffffffffffffffffffffffffffffffffffffffff167fddf252ad1be2c89b69c2b068fc378daa952ba7f163c4a11628f55a4df523b3ef60405160405180910390a46116566000838360016112b0565b5050565b6000808273ffffffffffffffffffffffffffffffffffffffff163b119050919050565b6000604051905090565b600080fd5b600080fd5b60007fffffffff0000000000000000000000000000000000000000000000000000000082169050919050565b6116c681611691565b81146116d157600080fd5b50565b6000813590506116e3816116bd565b92915050565b6000602082840312156116ff576116fe611687565b5b600061170d848285016116d4565b91505092915050565b60008115159050919050565b61172b81611716565b82525050565b60006020820190506117466000830184611722565b92915050565b600081519050919050565b600082825260208201905092915050565b60005b8381101561178657808201518184015260208101905061176b565b60008484015250505050565b6000601f19601f8301169050919050565b60006117ae8261174c565b6117b88185611757565b93506117c8818560208601611768565b6117d181611792565b840191505092915050565b600060208201905081810360008301526117f681846117a3565b905092915050565b6000819050919050565b611811816117fe565b811461181c57600080fd5b50565b60008135905061182e81611808565b92915050565b60006020828403121561184a57611849611687565b5b60006118588482850161181f565b91505092915050565b600073ffffffffffffffffffffffffffffffffffffffff82169050919050565b600061188c82611861565b9050919050565b61189c81611881565b82525050565b60006020820190506118b76000830184611893565b92915050565b6118c681611881565b81146118d157600080fd5b50565b6000813590506118e3816118bd565b92915050565b60008060408385031215611900576118ff611687565b5b600061190e858286016118d4565b925050602061191f8582860161181f565b9150509250929050565b611932816117fe565b82525050565b600060208201905061194d6000830184611929565b92915050565b60008060006060848603121561196c5761196b611687565b5b600061197a868287016118d4565b935050602061198b868287016118d4565b925050604061199c8682870161181f565b9150509250925092565b6000602082840312156119bc576119bb611687565b5b60006119ca848285016118d4565b91505092915050565b6119dc81611716565b81146119e757600080fd5b50565b6000813590506119f9816119d3565b92915050565b60008060408385031215611a1657611a15611687565b5b6000611a24858286016118d4565b9250506020611a35858286016119ea565b9150509250929050565b600080fd5b600080fd5b7f4e487b7100000000000000000000000000000000000000000000000000000000600052604160045260246000fd5b611a8182611792565b810181811067ffffffffffffffff82111715611aa057611a9f611a49565b5b80604052505050565b6000611ab361167d565b9050611abf8282611a78565b919050565b600067ffffffffffffffff821115611adf57611ade611a49565b5b611ae882611792565b9050602081019050919050565b82818337600083830152505050565b6000611b17611b1284611ac4565b611aa9565b905082815260208101848484011115611b3357611b32611a44565b5b611b3e848285611af5565b509392505050565b600082601f830112611b5b57611b5a611a3f565b5b8135611b6b848260208601611b04565b91505092915050565b60008060008060808587031215611b8e57611b8d611687565b5b6000611b9c878288016118d4565b9450506020611bad878288016118d4565b9350506040611bbe8782880161181f565b925050606085013567ffffffffffffffff811115611bdf57611bde61168c565b5b611beb87828801611b46565b91505092959194509250565b60008060408385031215611c0e57611c0d611687565b5b6000611c1c858286016118d4565b9250506020611c2d858286016118d4565b9150509250929050565b7f4e487b7100000000000000000000000000000000000000000000000000000000600052602260045260246000fd5b60006002820490506001821680611c7e57607f821691505b602082108103611c9157611c90611c37565b5b50919050565b7f4552433732313a20617070726f76616c20746f2063757272656e74206f776e6560008201527f7200000000000000000000000000000000000000000000000000000000000000602082015250565b6000611cf3602183611757565b9150611cfe82611c97565b604082019050919050565b60006020820190508181036000830152611d2281611ce6565b9050919050565b7f4552433732313a20617070726f76652063616c6c6572206973206e6f7420746f60008201527f6b656e206f776e6572206f7220617070726f76656420666f7220616c6c000000602082015250565b6000611d85603d83611757565b9150611d9082611d29565b604082019050919050565b60006020820190508181036000830152611db481611d78565b9050919050565b7f4e487b7100000000000000000000000000000000000000000000000000000000600052601160045260246000fd5b6000611df5826117fe565b9150611e00836117fe565b9250828201905080821115611e1857611e17611dbb565b5b92915050565b7f4552433732313a2063616c6c6572206973206e6f7420746f6b656e206f776e6560008201527f72206f7220617070726f76656400000000000000000000000000000000000000602082015250565b6000611e7a602d83611757565b9150611e8582611e1e565b604082019050919050565b60006020820190508181036000830152611ea981611e6d565b9050919050565b7f4552433732313a20696e76616c696420746f6b656e2049440000000000000000600082015250565b6000611ee6601883611757565b9150611ef182611eb0565b602082019050919050565b60006020820190508181036000830152611f1581611ed9565b9050919050565b7f4552433732313a2061646472657373207a65726f206973206e6f74206120766160008201527f6c6964206f776e65720000000000000000000000000000000000000000000000602082015250565b6000611f78602983611757565b9150611f8382611f1c565b604082019050919050565b60006020820190508181036000830152611fa781611f6b565b9050919050565b7f4552433732313a207472616e736665722066726f6d20696e636f72726563742060008201527f6f776e6572000000000000000000000000000000000000000000000000000000602082015250565b600061200a602583611757565b915061201582611fae565b604082019050919050565b6000602082019050818103600083015261203981611ffd565b9050919050565b7f4552433732313a207472616e7366657220746f20746865207a65726f2061646460008201527f7265737300000000000000000000000000000000000000000000000000000000602082015250565b600061209c602483611757565b91506120a782612040565b604082019050919050565b600060208201905081810360008301526120cb8161208f565b9050919050565b7f4552433732313a20617070726f766520746f2063616c6c657200000000000000600082015250565b6000612108601983611757565b9150612113826120d2565b602082019050919050565b60006020820190508181036000830152612137816120fb565b9050919050565b7f4552433732313a207472616e7366657220746f206e6f6e20455243373231526560008201527f63656976657220696d706c656d656e7465720000000000000000000000000000602082015250565b600061219a603283611757565b91506121a58261213e565b604082019050919050565b600060208201905081810360008301526121c98161218d565b9050919050565b600081519050919050565b600082825260208201905092915050565b60006121f7826121d0565b61220181856121db565b9350612211818560208601611768565b61221a81611792565b840191505092915050565b600060808201905061223a6000830187611893565b6122476020830186611893565b6122546040830185611929565b818103606083015261226681846121ec565b905095945050505050565b600081519050612280816116bd565b92915050565b60006020828403121561229c5761229b611687565b5b60006122aa84828501612271565b91505092915050565b7f4552433732313a206d696e7420746f20746865207a65726f2061646472657373600082015250565b60006122e9602083611757565b91506122f4826122b3565b602082019050919050565b60006020820190508181036000830152612318816122dc565b9050919050565b7f4552433732313a20746f6b656e20616c7265616479206d696e74656400000000600082015250565b6000612355601c83611757565b91506123608261231f565b602082019050919050565b6000602082019050818103600083015261238481612348565b905091905056fea2646970667358221220a0dcb08b60a087fdbefde575b2baf9e28b3c0edda12494462ac6155009b1fb5864736f6c63430008110033",
	"linkReferences": {},
	"deployedLinkReferences": {}
}