{
	"_format": "hh-sol-artifact-1",
	"contractName": "MyToken",
	"sourceName": "contracts/MyToken.sol",
	"abi": [
		{
			"inputs": [
				{
					"internalType": "uint256",
					"name": "_totalSupply",
					"type": "uint256"
				},
				{
					"internalType": "string",
					"name": "tokenName",
					"type": "string"
				},
				{
					"internalType": "string",
					"name": "tokenSym",
					"type": "string"
				},
				{
					"internalType": "uint256",
					"name": "_mintCost",
					"type": "uint256"
				},
				{
					"internalType": "string",
					"name": "_tokenURIs",
					"type": "string"
				}
			],
			"stateMutability": "nonpayable",
			"type": "constructor"
		},
		{
			"anonymous": false,
			"inputs": [
				{
					"indexed": true,
					"internalType": "address",
					"name": "owner",
					"type": "address"
				},
				{
					"indexed": true,
					"internalType": "address",
					"name": "approved",
					"type": "address"
				},
				{
					"indexed": true,
					"internalType": "uint256",
					"name": "tokenId",
					"type": "uint256"
				}
			],
			"name": "Approval",
			"type": "event"
		},
		{
			"anonymous": false,
			"inputs": [
				{
					"indexed": true,
					"internalType": "address",
					"name": "owner",
					"type": "address"
				},
				{
					"indexed": true,
					"internalType": "address",
					"name": "operator",
					"type": "address"
				},
				{
					"indexed": false,
					"internalType": "bool",
					"name": "approved",
					"type": "bool"
				}
			],
			"name": "ApprovalForAll",
			"type": "event"
		},
		{
			"anonymous": false,
			"inputs": [
				{
					"indexed": true,
					"internalType": "address",
					"name": "from",
					"type": "address"
				},
				{
					"indexed": true,
					"internalType": "address",
					"name": "to",
					"type": "address"
				},
				{
					"indexed": true,
					"internalType": "uint256",
					"name": "tokenId",
					"type": "uint256"
				}
			],
			"name": "Transfer",
			"type": "event"
		},
		{
			"inputs": [
				{
					"internalType": "address",
					"name": "to",
					"type": "address"
				},
				{
					"internalType": "uint256",
					"name": "tokenId",
					"type": "uint256"
				}
			],
			"name": "approve",
			"outputs": [],
			"stateMutability": "nonpayable",
			"type": "function"
		},
		{
			"inputs": [
				{
					"internalType": "address",
					"name": "owner",
					"type": "address"
				}
			],
			"name": "balanceOf",
			"outputs": [
				{
					"internalType": "uint256",
					"name": "",
					"type": "uint256"
				}
			],
			"stateMutability": "view",
			"type": "function"
		},
		{
			"inputs": [
				{
					"internalType": "uint256",
					"name": "tokenId",
					"type": "uint256"
				}
			],
			"name": "getApproved",
			"outputs": [
				{
					"internalType": "address",
					"name": "",
					"type": "address"
				}
			],
			"stateMutability": "view",
			"type": "function"
		},
		{
			"inputs": [
				{
					"internalType": "address",
					"name": "owner",
					"type": "address"
				},
				{
					"internalType": "address",
					"name": "operator",
					"type": "address"
				}
			],
			"name": "isApprovedForAll",
			"outputs": [
				{
					"internalType": "bool",
					"name": "",
					"type": "bool"
				}
			],
			"stateMutability": "view",
			"type": "function"
		},
		{
			"inputs": [],
			"name": "mintCost",
			"outputs": [
				{
					"internalType": "uint256",
					"name": "",
					"type": "uint256"
				}
			],
			"stateMutability": "view",
			"type": "function"
		},
		{
			"inputs": [],
			"name": "mintNFT",
			"outputs": [],
			"stateMutability": "payable",
			"type": "function"
		},
		{
			"inputs": [],
			"name": "name",
			"outputs": [
				{
					"internalType": "string",
					"name": "",
					"type": "string"
				}
			],
			"stateMutability": "view",
			"type": "function"
		},
		{
			"inputs": [],
			"name": "owner",
			"outputs": [
				{
					"internalType": "address",
					"name": "",
					"type": "address"
				}
			],
			"stateMutability": "view",
			"type": "function"
		},
		{
			"inputs": [
				{
					"internalType": "uint256",
					"name": "tokenId",
					"type": "uint256"
				}
			],
			"name": "ownerOf",
			"outputs": [
				{
					"internalType": "address",
					"name": "",
					"type": "address"
				}
			],
			"stateMutability": "view",
			"type": "function"
		},
		{
			"inputs": [
				{
					"internalType": "address",
					"name": "from",
					"type": "address"
				},
				{
					"internalType": "address",
					"name": "to",
					"type": "address"
				},
				{
					"internalType": "uint256",
					"name": "tokenId",
					"type": "uint256"
				}
			],
			"name": "safeTransferFrom",
			"outputs": [],
			"stateMutability": "nonpayable",
			"type": "function"
		},
		{
			"inputs": [
				{
					"internalType": "address",
					"name": "from",
					"type": "address"
				},
				{
					"internalType": "address",
					"name": "to",
					"type": "address"
				},
				{
					"internalType": "uint256",
					"name": "tokenId",
					"type": "uint256"
				},
				{
					"internalType": "bytes",
					"name": "data",
					"type": "bytes"
				}
			],
			"name": "safeTransferFrom",
			"outputs": [],
			"stateMutability": "nonpayable",
			"type": "function"
		},
		{
			"inputs": [
				{
					"internalType": "address",
					"name": "operator",
					"type": "address"
				},
				{
					"internalType": "bool",
					"name": "approved",
					"type": "bool"
				}
			],
			"name": "setApprovalForAll",
			"outputs": [],
			"stateMutability": "nonpayable",
			"type": "function"
		},
		{
			"inputs": [
				{
					"internalType": "bytes4",
					"name": "interfaceId",
					"type": "bytes4"
				}
			],
			"name": "supportsInterface",
			"outputs": [
				{
					"internalType": "bool",
					"name": "",
					"type": "bool"
				}
			],
			"stateMutability": "view",
			"type": "function"
		},
		{
			"inputs": [],
			"name": "symbol",
			"outputs": [
				{
					"internalType": "string",
					"name": "",
					"type": "string"
				}
			],
			"stateMutability": "view",
			"type": "function"
		},
		{
			"inputs": [],
			"name": "tokenId",
			"outputs": [
				{
					"internalType": "uint256",
					"name": "",
					"type": "uint256"
				}
			],
			"stateMutability": "view",
			"type": "function"
		},
		{
			"inputs": [
				{
					"internalType": "uint256",
					"name": "_tokenId",
					"type": "uint256"
				}
			],
			"name": "tokenURI",
			"outputs": [
				{
					"internalType": "string",
					"name": "",
					"type": "string"
				}
			],
			"stateMutability": "view",
			"type": "function"
		},
		{
			"inputs": [],
			"name": "tokenURIs",
			"outputs": [
				{
					"internalType": "string",
					"name": "",
					"type": "string"
				}
			],
			"stateMutability": "view",
			"type": "function"
		},
		{
			"inputs": [],
			"name": "totalSupply",
			"outputs": [
				{
					"internalType": "uint256",
					"name": "",
					"type": "uint256"
				}
			],
			"stateMutability": "view",
			"type": "function"
		},
		{
			"inputs": [
				{
					"internalType": "address",
					"name": "from",
					"type": "address"
				},
				{
					"internalType": "address",
					"name": "to",
					"type": "address"
				},
				{
					"internalType": "uint256",
					"name": "tokenId",
					"type": "uint256"
				}
			],
			"name": "transferFrom",
			"outputs": [],
			"stateMutability": "nonpayable",
			"type": "function"
		}
	],
	"bytecode": "0x608060405260006007553480156200001657600080fd5b5060405162002dd638038062002dd683398181016040528101906200003c9190620002b5565b838381600090816200004f9190620005db565b508060019081620000619190620005db565b5050508460068190555080600890816200007c9190620005db565b506200008d620000df60201b60201c565b600960006101000a81548173ffffffffffffffffffffffffffffffffffffffff021916908373ffffffffffffffffffffffffffffffffffffffff16021790555081600a819055505050505050620006c2565b600033905090565b6000604051905090565b600080fd5b600080fd5b6000819050919050565b6200011081620000fb565b81146200011c57600080fd5b50565b600081519050620001308162000105565b92915050565b600080fd5b600080fd5b6000601f19601f8301169050919050565b7f4e487b7100000000000000000000000000000000000000000000000000000000600052604160045260246000fd5b6200018b8262000140565b810181811067ffffffffffffffff82111715620001ad57620001ac62000151565b5b80604052505050565b6000620001c2620000e7565b9050620001d0828262000180565b919050565b600067ffffffffffffffff821115620001f357620001f262000151565b5b620001fe8262000140565b9050602081019050919050565b60005b838110156200022b5780820151818401526020810190506200020e565b60008484015250505050565b60006200024e6200024884620001d5565b620001b6565b9050828152602081018484840111156200026d576200026c6200013b565b5b6200027a8482856200020b565b509392505050565b600082601f8301126200029a576200029962000136565b5b8151620002ac84826020860162000237565b91505092915050565b600080600080600060a08688031215620002d457620002d3620000f1565b5b6000620002e4888289016200011f565b955050602086015167ffffffffffffffff811115620003085762000307620000f6565b5b620003168882890162000282565b945050604086015167ffffffffffffffff8111156200033a5762000339620000f6565b5b620003488882890162000282565b93505060606200035b888289016200011f565b925050608086015167ffffffffffffffff8111156200037f576200037e620000f6565b5b6200038d8882890162000282565b9150509295509295909350565b600081519050919050565b7f4e487b7100000000000000000000000000000000000000000000000000000000600052602260045260246000fd5b60006002820490506001821680620003ed57607f821691505b602082108103620004035762000402620003a5565b5b50919050565b60008190508160005260206000209050919050565b60006020601f8301049050919050565b600082821b905092915050565b6000600883026200046d7fffffffffffffffffffffffffffffffffffffffffffffffffffffffffffffffff826200042e565b6200047986836200042e565b95508019841693508086168417925050509392505050565b6000819050919050565b6000620004bc620004b6620004b084620000fb565b62000491565b620000fb565b9050919050565b6000819050919050565b620004d8836200049b565b620004f0620004e782620004c3565b8484546200043b565b825550505050565b600090565b62000507620004f8565b62000514818484620004cd565b505050565b5b818110156200053c5762000530600082620004fd565b6001810190506200051a565b5050565b601f8211156200058b57620005558162000409565b62000560846200041e565b8101602085101562000570578190505b620005886200057f856200041e565b83018262000519565b50505b505050565b600082821c905092915050565b6000620005b06000198460080262000590565b1980831691505092915050565b6000620005cb83836200059d565b9150826002028217905092915050565b620005e6826200039a565b67ffffffffffffffff81111562000602576200060162000151565b5b6200060e8254620003d4565b6200061b82828562000540565b600060209050601f8311600181146200065357600084156200063e578287015190505b6200064a8582620005bd565b865550620006ba565b601f198416620006638662000409565b60005b828110156200068d5784890151825560018201915060208501945060208101905062000666565b86831015620006ad5784890151620006a9601f8916826200059d565b8355505b6001600288020188555050505b505050505050565b61270480620006d26000396000f3fe6080604052600436106101145760003560e01c80636352211e116100a0578063b88d4fde11610064578063b88d4fde14610392578063bdb4b848146103bb578063c87b56dd146103e6578063e7b26fde14610423578063e985e9c51461044e57610114565b80636352211e1461029957806370a08231146102d65780638da5cb5b1461031357806395d89b411461033e578063a22cb4651461036957610114565b806314f710fe116100e757806314f710fe146101e757806317d70f7c146101f157806318160ddd1461021c57806323b872dd1461024757806342842e0e1461027057610114565b806301ffc9a71461011957806306fdde0314610156578063081812fc14610181578063095ea7b3146101be575b600080fd5b34801561012557600080fd5b50610140600480360381019061013b9190611966565b61048b565b60405161014d91906119ae565b60405180910390f35b34801561016257600080fd5b5061016b61056d565b6040516101789190611a59565b60405180910390f35b34801561018d57600080fd5b506101a860048036038101906101a39190611ab1565b6105ff565b6040516101b59190611b1f565b60405180910390f35b3480156101ca57600080fd5b506101e560048036038101906101e09190611b66565b610645565b005b6101ef61075c565b005b3480156101fd57600080fd5b506102066108a6565b6040516102139190611bb5565b60405180910390f35b34801561022857600080fd5b506102316108ac565b60405161023e9190611bb5565b60405180910390f35b34801561025357600080fd5b5061026e60048036038101906102699190611bd0565b6108b2565b005b34801561027c57600080fd5b5061029760048036038101906102929190611bd0565b610912565b005b3480156102a557600080fd5b506102c060048036038101906102bb9190611ab1565b610932565b6040516102cd9190611b1f565b60405180910390f35b3480156102e257600080fd5b506102fd60048036038101906102f89190611c23565b6109b8565b60405161030a9190611bb5565b60405180910390f35b34801561031f57600080fd5b50610328610a6f565b6040516103359190611b1f565b60405180910390f35b34801561034a57600080fd5b50610353610a95565b6040516103609190611a59565b60405180910390f35b34801561037557600080fd5b50610390600480360381019061038b9190611c7c565b610b27565b005b34801561039e57600080fd5b506103b960048036038101906103b49190611df1565b610b3d565b005b3480156103c757600080fd5b506103d0610b9f565b6040516103dd9190611bb5565b60405180910390f35b3480156103f257600080fd5b5061040d60048036038101906104089190611ab1565b610ba5565b60405161041a9190611a59565b60405180910390f35b34801561042f57600080fd5b50610438610c42565b6040516104459190611a59565b60405180910390f35b34801561045a57600080fd5b5061047560048036038101906104709190611e74565b610cd0565b60405161048291906119ae565b60405180910390f35b60007f80ac58cd000000000000000000000000000000000000000000000000000000007bffffffffffffffffffffffffffffffffffffffffffffffffffffffff1916827bffffffffffffffffffffffffffffffffffffffffffffffffffffffff1916148061055657507f5b5e139f000000000000000000000000000000000000000000000000000000007bffffffffffffffffffffffffffffffffffffffffffffffffffffffff1916827bffffffffffffffffffffffffffffffffffffffffffffffffffffffff1916145b80610566575061056582610d64565b5b9050919050565b60606000805461057c90611ee3565b80601f01602080910402602001604051908101604052809291908181526020018280546105a890611ee3565b80156105f55780601f106105ca576101008083540402835291602001916105f5565b820191906000526020600020905b8154815290600101906020018083116105d857829003601f168201915b5050505050905090565b600061060a82610dce565b6004600083815260200190815260200160002060009054906101000a900473ffffffffffffffffffffffffffffffffffffffff169050919050565b600061065082610932565b90508073ffffffffffffffffffffffffffffffffffffffff168373ffffffffffffffffffffffffffffffffffffffff16036106c0576040517f08c379a00000000000000000000000000000000000000000000000000000000081526004016106b790611f86565b60405180910390fd5b8073ffffffffffffffffffffffffffffffffffffffff166106df610e19565b73ffffffffffffffffffffffffffffffffffffffff16148061070e575061070d81610708610e19565b610cd0565b5b61074d576040517f08c379a000000000000000000000000000000000000000000000000000000000815260040161074490612018565b60405180910390fd5b6107578383610e21565b505050565b600a543410156107a1576040517f08c379a0000000000000000000000000000000000000000000000000000000008152600401610798906120aa565b60405180910390fd5b600960009054906101000a900473ffffffffffffffffffffffffffffffffffffffff1673ffffffffffffffffffffffffffffffffffffffff166108fc600a549081150290604051600060405180830381858888f1935050505015801561080b573d6000803e3d6000fd5b506000600a543461081c91906120f9565b111561087e5761082a610e19565b73ffffffffffffffffffffffffffffffffffffffff166108fc600a543461085191906120f9565b9081150290604051600060405180830381858888f1935050505015801561087c573d6000803e3d6000fd5b505b61088a33600754610eda565b60016007600082825461089d919061212d565b92505081905550565b60075481565b60065481565b6108c36108bd610e19565b82610ef8565b610902576040517f08c379a00000000000000000000000000000000000000000000000000000000081526004016108f9906121d3565b60405180910390fd5b61090d838383610f8d565b505050565b61092d83838360405180602001604052806000815250610b3d565b505050565b60008061093e83611286565b9050600073ffffffffffffffffffffffffffffffffffffffff168173ffffffffffffffffffffffffffffffffffffffff16036109af576040517f08c379a00000000000000000000000000000000000000000000000000000000081526004016109a69061223f565b60405180910390fd5b80915050919050565b60008073ffffffffffffffffffffffffffffffffffffffff168273ffffffffffffffffffffffffffffffffffffffff1603610a28576040517f08c379a0000000000000000000000000000000000000000000000000000000008152600401610a1f906122d1565b60405180910390fd5b600360008373ffffffffffffffffffffffffffffffffffffffff1673ffffffffffffffffffffffffffffffffffffffff168152602001908152602001600020549050919050565b600960009054906101000a900473ffffffffffffffffffffffffffffffffffffffff1681565b606060018054610aa490611ee3565b80601f0160208091040260200160405190810160405280929190818152602001828054610ad090611ee3565b8015610b1d5780601f10610af257610100808354040283529160200191610b1d565b820191906000526020600020905b815481529060010190602001808311610b0057829003601f168201915b5050505050905090565b610b39610b32610e19565b83836112c3565b5050565b610b4e610b48610e19565b83610ef8565b610b8d576040517f08c379a0000000000000000000000000000000000000000000000000000000008152600401610b84906121d3565b60405180910390fd5b610b998484848461142f565b50505050565b600a5481565b6060610bb082610dce565b60088054610bbd90611ee3565b80601f0160208091040260200160405190810160405280929190818152602001828054610be990611ee3565b8015610c365780601f10610c0b57610100808354040283529160200191610c36565b820191906000526020600020905b815481529060010190602001808311610c1957829003601f168201915b50505050509050919050565b60088054610c4f90611ee3565b80601f0160208091040260200160405190810160405280929190818152602001828054610c7b90611ee3565b8015610cc85780601f10610c9d57610100808354040283529160200191610cc8565b820191906000526020600020905b815481529060010190602001808311610cab57829003601f168201915b505050505081565b6000600560008473ffffffffffffffffffffffffffffffffffffffff1673ffffffffffffffffffffffffffffffffffffffff16815260200190815260200160002060008373ffffffffffffffffffffffffffffffffffffffff1673ffffffffffffffffffffffffffffffffffffffff16815260200190815260200160002060009054906101000a900460ff16905092915050565b60007f01ffc9a7000000000000000000000000000000000000000000000000000000007bffffffffffffffffffffffffffffffffffffffffffffffffffffffff1916827bffffffffffffffffffffffffffffffffffffffffffffffffffffffff1916149050919050565b610dd78161148b565b610e16576040517f08c379a0000000000000000000000000000000000000000000000000000000008152600401610e0d9061223f565b60405180910390fd5b50565b600033905090565b816004600083815260200190815260200160002060006101000a81548173ffffffffffffffffffffffffffffffffffffffff021916908373ffffffffffffffffffffffffffffffffffffffff160217905550808273ffffffffffffffffffffffffffffffffffffffff16610e9483610932565b73ffffffffffffffffffffffffffffffffffffffff167f8c5be1e5ebec7d5bd14f71427d1e84f3dd0314c0f7b2291e5b200ac8c7c3b92560405160405180910390a45050565b610ef48282604051806020016040528060008152506114cc565b5050565b600080610f0483610932565b90508073ffffffffffffffffffffffffffffffffffffffff168473ffffffffffffffffffffffffffffffffffffffff161480610f465750610f458185610cd0565b5b80610f8457508373ffffffffffffffffffffffffffffffffffffffff16610f6c846105ff565b73ffffffffffffffffffffffffffffffffffffffff16145b91505092915050565b8273ffffffffffffffffffffffffffffffffffffffff16610fad82610932565b73ffffffffffffffffffffffffffffffffffffffff1614611003576040517f08c379a0000000000000000000000000000000000000000000000000000000008152600401610ffa90612363565b60405180910390fd5b600073ffffffffffffffffffffffffffffffffffffffff168273ffffffffffffffffffffffffffffffffffffffff1603611072576040517f08c379a0000000000000000000000000000000000000000000000000000000008152600401611069906123f5565b60405180910390fd5b61107f8383836001611527565b8273ffffffffffffffffffffffffffffffffffffffff1661109f82610932565b73ffffffffffffffffffffffffffffffffffffffff16146110f5576040517f08c379a00000000000000000000000000000000000000000000000000000000081526004016110ec90612363565b60405180910390fd5b6004600082815260200190815260200160002060006101000a81549073ffffffffffffffffffffffffffffffffffffffff02191690556001600360008573ffffffffffffffffffffffffffffffffffffffff1673ffffffffffffffffffffffffffffffffffffffff168152602001908152602001600020600082825403925050819055506001600360008473ffffffffffffffffffffffffffffffffffffffff1673ffffffffffffffffffffffffffffffffffffffff16815260200190815260200160002060008282540192505081905550816002600083815260200190815260200160002060006101000a81548173ffffffffffffffffffffffffffffffffffffffff021916908373ffffffffffffffffffffffffffffffffffffffff160217905550808273ffffffffffffffffffffffffffffffffffffffff168473ffffffffffffffffffffffffffffffffffffffff167fddf252ad1be2c89b69c2b068fc378daa952ba7f163c4a11628f55a4df523b3ef60405160405180910390a4611281838383600161152d565b505050565b60006002600083815260200190815260200160002060009054906101000a900473ffffffffffffffffffffffffffffffffffffffff169050919050565b8173ffffffffffffffffffffffffffffffffffffffff168373ffffffffffffffffffffffffffffffffffffffff1603611331576040517f08c379a000000000000000000000000000000000000000000000000000000000815260040161132890612461565b60405180910390fd5b80600560008573ffffffffffffffffffffffffffffffffffffffff1673ffffffffffffffffffffffffffffffffffffffff16815260200190815260200160002060008473ffffffffffffffffffffffffffffffffffffffff1673ffffffffffffffffffffffffffffffffffffffff16815260200190815260200160002060006101000a81548160ff0219169083151502179055508173ffffffffffffffffffffffffffffffffffffffff168373ffffffffffffffffffffffffffffffffffffffff167f17307eab39ab6107e8899845ad3d59bd9653f200f220920489ca2b5937696c318360405161142291906119ae565b60405180910390a3505050565b61143a848484610f8d565b61144684848484611533565b611485576040517f08c379a000000000000000000000000000000000000000000000000000000000815260040161147c906124f3565b60405180910390fd5b50505050565b60008073ffffffffffffffffffffffffffffffffffffffff166114ad83611286565b73ffffffffffffffffffffffffffffffffffffffff1614159050919050565b6114d683836116ba565b6114e36000848484611533565b611522576040517f08c379a0000000000000000000000000000000000000000000000000000000008152600401611519906124f3565b60405180910390fd5b505050565b50505050565b50505050565b60006115548473ffffffffffffffffffffffffffffffffffffffff166118d7565b156116ad578373ffffffffffffffffffffffffffffffffffffffff1663150b7a0261157d610e19565b8786866040518563ffffffff1660e01b815260040161159f9493929190612568565b6020604051808303816000875af19250505080156115db57506040513d601f19601f820116820180604052508101906115d891906125c9565b60015b61165d573d806000811461160b576040519150601f19603f3d011682016040523d82523d6000602084013e611610565b606091505b506000815103611655576040517f08c379a000000000000000000000000000000000000000000000000000000000815260040161164c906124f3565b60405180910390fd5b805181602001fd5b63150b7a0260e01b7bffffffffffffffffffffffffffffffffffffffffffffffffffffffff1916817bffffffffffffffffffffffffffffffffffffffffffffffffffffffff1916149150506116b2565b600190505b949350505050565b600073ffffffffffffffffffffffffffffffffffffffff168273ffffffffffffffffffffffffffffffffffffffff1603611729576040517f08c379a000000000000000000000000000000000000000000000000000000000815260040161172090612642565b60405180910390fd5b6117328161148b565b15611772576040517f08c379a0000000000000000000000000000000000000000000000000000000008152600401611769906126ae565b60405180910390fd5b611780600083836001611527565b6117898161148b565b156117c9576040517f08c379a00000000000000000000000000000000000000000000000000000000081526004016117c0906126ae565b60405180910390fd5b6001600360008473ffffffffffffffffffffffffffffffffffffffff1673ffffffffffffffffffffffffffffffffffffffff16815260200190815260200160002060008282540192505081905550816002600083815260200190815260200160002060006101000a81548173ffffffffffffffffffffffffffffffffffffffff021916908373ffffffffffffffffffffffffffffffffffffffff160217905550808273ffffffffffffffffffffffffffffffffffffffff16600073ffffffffffffffffffffffffffffffffffffffff167fddf252ad1be2c89b69c2b068fc378daa952ba7f163c4a11628f55a4df523b3ef60405160405180910390a46118d360008383600161152d565b5050565b6000808273ffffffffffffffffffffffffffffffffffffffff163b119050919050565b6000604051905090565b600080fd5b600080fd5b60007fffffffff0000000000000000000000000000000000000000000000000000000082169050919050565b6119438161190e565b811461194e57600080fd5b50565b6000813590506119608161193a565b92915050565b60006020828403121561197c5761197b611904565b5b600061198a84828501611951565b91505092915050565b60008115159050919050565b6119a881611993565b82525050565b60006020820190506119c3600083018461199f565b92915050565b600081519050919050565b600082825260208201905092915050565b60005b83811015611a035780820151818401526020810190506119e8565b60008484015250505050565b6000601f19601f8301169050919050565b6000611a2b826119c9565b611a3581856119d4565b9350611a458185602086016119e5565b611a4e81611a0f565b840191505092915050565b60006020820190508181036000830152611a738184611a20565b905092915050565b6000819050919050565b611a8e81611a7b565b8114611a9957600080fd5b50565b600081359050611aab81611a85565b92915050565b600060208284031215611ac757611ac6611904565b5b6000611ad584828501611a9c565b91505092915050565b600073ffffffffffffffffffffffffffffffffffffffff82169050919050565b6000611b0982611ade565b9050919050565b611b1981611afe565b82525050565b6000602082019050611b346000830184611b10565b92915050565b611b4381611afe565b8114611b4e57600080fd5b50565b600081359050611b6081611b3a565b92915050565b60008060408385031215611b7d57611b7c611904565b5b6000611b8b85828601611b51565b9250506020611b9c85828601611a9c565b9150509250929050565b611baf81611a7b565b82525050565b6000602082019050611bca6000830184611ba6565b92915050565b600080600060608486031215611be957611be8611904565b5b6000611bf786828701611b51565b9350506020611c0886828701611b51565b9250506040611c1986828701611a9c565b9150509250925092565b600060208284031215611c3957611c38611904565b5b6000611c4784828501611b51565b91505092915050565b611c5981611993565b8114611c6457600080fd5b50565b600081359050611c7681611c50565b92915050565b60008060408385031215611c9357611c92611904565b5b6000611ca185828601611b51565b9250506020611cb285828601611c67565b9150509250929050565b600080fd5b600080fd5b7f4e487b7100000000000000000000000000000000000000000000000000000000600052604160045260246000fd5b611cfe82611a0f565b810181811067ffffffffffffffff82111715611d1d57611d1c611cc6565b5b80604052505050565b6000611d306118fa565b9050611d3c8282611cf5565b919050565b600067ffffffffffffffff821115611d5c57611d5b611cc6565b5b611d6582611a0f565b9050602081019050919050565b82818337600083830152505050565b6000611d94611d8f84611d41565b611d26565b905082815260208101848484011115611db057611daf611cc1565b5b611dbb848285611d72565b509392505050565b600082601f830112611dd857611dd7611cbc565b5b8135611de8848260208601611d81565b91505092915050565b60008060008060808587031215611e0b57611e0a611904565b5b6000611e1987828801611b51565b9450506020611e2a87828801611b51565b9350506040611e3b87828801611a9c565b925050606085013567ffffffffffffffff811115611e5c57611e5b611909565b5b611e6887828801611dc3565b91505092959194509250565b60008060408385031215611e8b57611e8a611904565b5b6000611e9985828601611b51565b9250506020611eaa85828601611b51565b9150509250929050565b7f4e487b7100000000000000000000000000000000000000000000000000000000600052602260045260246000fd5b60006002820490506001821680611efb57607f821691505b602082108103611f0e57611f0d611eb4565b5b50919050565b7f4552433732313a20617070726f76616c20746f2063757272656e74206f776e6560008201527f7200000000000000000000000000000000000000000000000000000000000000602082015250565b6000611f706021836119d4565b9150611f7b82611f14565b604082019050919050565b60006020820190508181036000830152611f9f81611f63565b9050919050565b7f4552433732313a20617070726f76652063616c6c6572206973206e6f7420746f60008201527f6b656e206f776e6572206f7220617070726f76656420666f7220616c6c000000602082015250565b6000612002603d836119d4565b915061200d82611fa6565b604082019050919050565b6000602082019050818103600083015261203181611ff5565b9050919050565b7f506c65617365207061792074686520617070726f707269617465206d696e742060008201527f6665650000000000000000000000000000000000000000000000000000000000602082015250565b60006120946023836119d4565b915061209f82612038565b604082019050919050565b600060208201905081810360008301526120c381612087565b9050919050565b7f4e487b7100000000000000000000000000000000000000000000000000000000600052601160045260246000fd5b600061210482611a7b565b915061210f83611a7b565b9250828203905081811115612127576121266120ca565b5b92915050565b600061213882611a7b565b915061214383611a7b565b925082820190508082111561215b5761215a6120ca565b5b92915050565b7f4552433732313a2063616c6c6572206973206e6f7420746f6b656e206f776e6560008201527f72206f7220617070726f76656400000000000000000000000000000000000000602082015250565b60006121bd602d836119d4565b91506121c882612161565b604082019050919050565b600060208201905081810360008301526121ec816121b0565b9050919050565b7f4552433732313a20696e76616c696420746f6b656e2049440000000000000000600082015250565b60006122296018836119d4565b9150612234826121f3565b602082019050919050565b600060208201905081810360008301526122588161221c565b9050919050565b7f4552433732313a2061646472657373207a65726f206973206e6f74206120766160008201527f6c6964206f776e65720000000000000000000000000000000000000000000000602082015250565b60006122bb6029836119d4565b91506122c68261225f565b604082019050919050565b600060208201905081810360008301526122ea816122ae565b9050919050565b7f4552433732313a207472616e736665722066726f6d20696e636f72726563742060008201527f6f776e6572000000000000000000000000000000000000000000000000000000602082015250565b600061234d6025836119d4565b9150612358826122f1565b604082019050919050565b6000602082019050818103600083015261237c81612340565b9050919050565b7f4552433732313a207472616e7366657220746f20746865207a65726f2061646460008201527f7265737300000000000000000000000000000000000000000000000000000000602082015250565b60006123df6024836119d4565b91506123ea82612383565b604082019050919050565b6000602082019050818103600083015261240e816123d2565b9050919050565b7f4552433732313a20617070726f766520746f2063616c6c657200000000000000600082015250565b600061244b6019836119d4565b915061245682612415565b602082019050919050565b6000602082019050818103600083015261247a8161243e565b9050919050565b7f4552433732313a207472616e7366657220746f206e6f6e20455243373231526560008201527f63656976657220696d706c656d656e7465720000000000000000000000000000602082015250565b60006124dd6032836119d4565b91506124e882612481565b604082019050919050565b6000602082019050818103600083015261250c816124d0565b9050919050565b600081519050919050565b600082825260208201905092915050565b600061253a82612513565b612544818561251e565b93506125548185602086016119e5565b61255d81611a0f565b840191505092915050565b600060808201905061257d6000830187611b10565b61258a6020830186611b10565b6125976040830185611ba6565b81810360608301526125a9818461252f565b905095945050505050565b6000815190506125c38161193a565b92915050565b6000602082840312156125df576125de611904565b5b60006125ed848285016125b4565b91505092915050565b7f4552433732313a206d696e7420746f20746865207a65726f2061646472657373600082015250565b600061262c6020836119d4565b9150612637826125f6565b602082019050919050565b6000602082019050818103600083015261265b8161261f565b9050919050565b7f4552433732313a20746f6b656e20616c7265616479206d696e74656400000000600082015250565b6000612698601c836119d4565b91506126a382612662565b602082019050919050565b600060208201905081810360008301526126c78161268b565b905091905056fea2646970667358221220a931babdf275c53c1a367130e4f61d73d76d5d739fd7edd2cc8d905f978c309a64736f6c63430008110033",
	"linkReferences": {},
	"deployedLinkReferences": {}
}